:020000040800F2
:10000000080A00200101000819140008A1130008C3
:10001000A5130008210B000893340008000000001D
:100020000000000000000000000000005F29000840
:10003000F70E0008000000001D280008212B000812
:100040001B0100081B0100081B0100081B01000820
:100050001B0100081B0100081B0100081B01000810
:100060001B0100081B0100081B0100081B01000800
:100070001B010008E90B00081B0100081B01000818
:100080001B0100081B0100081B0100081B010008E0
:100090001B0100081B0100081B0100081B010008D0
:1000A0001B0100081B0100081B0100081B010008C0
:1000B0001B0100081B0100081B0100081B010008B0
:1000C0001B0100081B0100081B0100081B010008A0
:1000D0001B0100081B0100081D3200081B0100085D
:1000E0001B0100081B0100081B010008DFF80CD0F1
:1000F00000F00EFC0048004715360008080A0020F2
:100100000648804706480047FEE7FEE7FEE7FEE7B1
:10011000FEE7FEE7FEE7FEE7FEE7FEE7852B0008C9
:10012000ED00000810B5002200E0521C835C8C5CDE
:10013000A34201D1002BF8D1D8B2E1B2401A10BDD0
:10014000F0B480EA0102D40F4200B2EB410F02D2B8
:100150000246084611464A0042D0C30DDDB2C1F343
:10016000C752AD1A202D35DAC1F3160141F4000251
:1001700004B15242C5F1200602FA06F12A411044A8
:10018000B3EBD05F23D0C4B1012DA0EBC35009DC89
:10019000F0BC4FF0004202EAC352DBB200F50000AF
:1001A00000F0E6BA400000F1807000EBC350A0F10F
:1001B000807040EAD170490009E0490841EAC07105
:1001C000A0EBC35000F50000400800EBC350F0BCAA
:1001D00000F0C5BA6142012202EB4101001BF6E7C3
:1001E000F0BC704781F00041AAE780F00040A7E72B
:1001F00080EA010210B502F00043400022D04A001C
:100200001FD0010E01EB1261C0F35600C2F356027B
:1002100040F4000042F40002A0FB022000047F39F9
:10022000140400D0401C50EA124001D44000491E82
:10023000C2B20C0604EBD010401C4008802A02D049
:1002400003E0002010BD20F00100002900DA0020AA
:10025000184310BD2DE9FE4F804681EA0300C00F10
:100260000C46009021F0004123F00045B8EB02005D
:10027000A94105D24046214690461C460B460246FF
:1002800023F00040104347D0270DC7F30A00C3F303
:100290000A510290401A019040286BDAC3F3130010
:1002A00040F4801B0098924620B10023D2EB030A51
:1002B00063EB0B0B01985946C0F14002504600F029
:1002C0001DFA06460D4650465946019A00F035FA89
:1002D00010EB08006141002487EA115284EAE773B9
:1002E0001A4340D0009A62B3019A012A4FEA07529A
:1002F00015DC001B61EB02014FF0004202EA0752DD
:10030000CDE90042001C41F5801132462B4600F039
:100310006CFA03B0BDE8F08F40462146F9E7001BB8
:1003200061EB0201001C41F5801300185B412018AD
:10033000A2F5001747EB030140EAD570B6196D41ED
:1003400011E06D084FEA360645EAC0754FEA0752DC
:10035000001B61EB0201001C41F5801149084FEAC6
:1003600030000019514132462B4603B0BDE8F04F32
:1003700000F02CBA0098012240000023D0EB0202CA
:1003800063EBE073009821464FEAE074B8EB00009D
:1003900061EB0401E9E783F000435BE781F0004192
:1003A00058E72DE9FE4F81EA030404F0004421F0F0
:1003B000004100944FF0000B23F0004350EA010489
:1003C0005ED052EA03045BD0C3F30A54C1F30A556A
:1003D0002C44A4F2F3340194A0FB0254C1F31301A2
:1003E00041F48011C3F3130343F4801301FB02446F
:1003F00000FB034E840A970A44EA815447EA835774
:10040000A4FB076802958D0A05FB07854FEA932C2C
:1004100004FB0C542705029D4FEA065847EA16379D
:10042000B5EB08056EEB070C870E920E47EA8117B5
:1004300042EA8312A7FB0201B6EB0B0164EB000456
:100440002B0D43EA0C335E1844EB1C50DA46514640
:10045000E7FB0201C5F313044FEA0B3343EA1453DD
:100460004FEA0432019C43EA0603A4F10C0402940F
:10047000009CCDE900B400F0B8F903B0BDE8F08FFE
:1004800000200146F9E72DE9F04D81EA030404F06C
:10049000004B21F0004514464FF0000A23F00041C4
:1004A00050EA050220D054EA01021DD0C5F30A57D4
:1004B0000246C5F31303C1F31300C1F30A5640F417
:1004C000801543F48013A7EB0608101BD64608F2EC
:1004D000FD3873EB050002D308F1010801E0921822
:1004E0005B41B8F1000F03DA00200146BDE8F08D52
:1004F00000204FF48011064684460EE0171B73EB74
:10050000050705D3121B63EB050306434CEA010CF8
:1005100049084FEA300092185B4150EA0107EDD1DB
:1005200052EA030012D082EA040083EA050108437C
:1005300005D0101BAB4106D20122002306E00022A9
:100540004FF0004302E06FF0010253101AEB060077
:100550004CEB085110EB0A0041EB0B01BDE8F04DEC
:1005600000F034B9C10F80EAE0700844CA0796234E
:10057000002100F0FDB80EB5C10F80EAE07008441C
:10058000CA07002140F233438DE80E000A460B46AD
:1005900000F02BF903B000BD0EB540F233410291DB
:1005A0000021CDE900110A460B4600F01EF903B008
:1005B00000BD00F0004220F00040C10DC0F3160065
:1005C00040F400007F2901DA00207047962903DCFF
:1005D000C1F19601C84001E096398840002AF4D064
:1005E00040427047C1F30A5210B5C1F3130140F203
:1005F000FF3341F480119A4201DA002010BD40F22D
:1006000033439A42A2F2334203DC524200F085F8AF
:1006100010BD904010BD00F0004230F000400AD004
:10062000C10D01F56071C0F3160042EA0151C20824
:1006300040071143704700200146704730B5041E43
:1006400071F1000404DB4FF00044404264EB01010F
:10065000141E73F1000405DB1C464FF000435242A8
:1006600063EB04038B4208BF824230BD30B5041EE9
:1006700071F1000404DB4FF00044404264EB0101DF
:10068000141E73F1000405DB1C464FF00043524278
:1006900063EB0403994208BF904230BD01F0004370
:1006A00030B421F0004150EA010206D00A0DA2F553
:1006B0006072C1F31301002A02DC30BC00207047D5
:1006C000440F44EAC104C100E01830BC00EBC25042
:1006D00000F045B8002801DBC0F10040002901DB33
:1006E000C1F1004181427047002801DBC0F10040A8
:1006F000002901DBC1F1004188427047202A04DB58
:10070000203A00FA02F1002070479140C2F1200324
:1007100020FA03F3194390407047202A04DB203A63
:1007200021FA02F00021704721FA02F3D040C2F111
:1007300020029140084319467047202A06DBCB1758
:10074000203A41FA02F043EAE07306E041FA02F38C
:10075000D040C2F120029140084319467047002959
:10076000A8BF7047401C490008BF20F00100704737
:1007700010B4B0FA80FC00FA0CF050EA010404BF97
:1007800010BC704749B1CCF1200421FA04F411FAED
:100790000CF118BF012121430843A3EB0C01CB1D31
:1007A0004FEA00614FEA102042BF002010BC7047A2
:1007B00000EBC35010440029A4BF10BC7047401C7C
:1007C000490008BF20F0010010BC704710B5141E8E
:1007D00073F1000408DA401C41F1000192185B41FA
:1007E0001A4301D120F0010010BD2DE9F04D9246D1
:1007F0009B4611B1B1FA81F202E0B0FA80F22032E8
:100800009046FFF77BFF04460F4640EA0A0041EAA4
:100810000B0153465A46084313D0114653EA0100D0
:1008200019D0C8F140025046FFF777FF05460E4643
:10083000504659464246FFF761FF084305D0012064
:1008400004E020463946BDE8F08D0020054346EA25
:10085000E0762C4337430A986305E40AA0EB0800CE
:100860000022FD0A44EA47540A3002D5002001461E
:10087000E9E7010510196941DDE9084500196941F9
:10088000BDE8F04DA2E700002DE9F041054621F05A
:1008900000400C46284309D0C4F30A5040F23341CB
:1008A000884205DD28462146BDE8F0812846FBE761
:1008B00040F2FE31884210DC0CDB4FEA043040EAA3
:1008C000155050EA053105D0104804F000410143AD
:1008D0000020E9E700200146E6E7A0F23340464267
:1008E000C6F1400228462146FFF708FF0746884622
:1008F000284621463246FFF710FF43463A46FFF7A7
:1009000065FF3246BDE8F041FFF7F8BE0000F03F5A
:10091000064C074D06E0E06840F0010394E807004C
:1009200098471034AC42F6D3FFF7E4FBF8470008D1
:100930001848000870B58C1810F8015B15F0070313
:1009400001D110F8013B2A1106D110F8012B03E068
:1009500010F8016B01F8016B5B1EF9D12B0705D470
:100960000023521E0DD401F8013BFAE710F8013BB9
:10097000CB1A921C03E013F8015B01F8015B521ED5
:10098000F9D5A142D8D3002070BD000010B500F009
:1009900061F81D4908700846007800B910BD1BA118
:1009A0001C48FFF7BFFB20B900201B4988621B4988
:1009B00048651BA11748FFF7B5FB30B91A4816491F
:1009C00088620020154948650AE018A11148FFF720
:1009D000A9FB28B918481049886200200F494865CA
:1009E00016A10C48FFF79EFB18B916480B4948653D
:1009F00007E015A10748FFF795FB10B91448074910
:100A0000486500BFCAE70000A001002053544F50C2
:100A100000000000A4050020CC00002034010020CC
:100A2000464F5257415244000000A0404241434BC0
:100A300057415244000000000000A0C04C454654FD
:100A40000000000000007A4452494748540000006A
:100A500000007AC405480078012804D10020034929
:100A60000870012070470020FCE7000040000020D3
:100A700000B587B00121480401F0E2FE0121042005
:100A800001F0EEFE18208DF81B000420ADF81800D0
:100A900003208DF81A0006A91F4800F00DFB48201E
:100AA0008DF81B000820ADF8180003208DF81A00FF
:100AB00006A9194800F000FB4FF4165002900020E0
:100AC000ADF814000C20ADF812000020ADF81000B5
:100AD000ADF80E00ADF80C0002A9104802F064FC5D
:100AE000012240F225510D4802F039FC26208DF8F4
:100AF000040001208DF8070002208DF80500012078
:100B00008DF8060001A800F0A5FF0121034802F0BE
:100B1000DAFB07B000BD00000008014000440040BF
:100B200000BFFEE738B503240020254908600823EC
:100B300024A20021084601F06BFA15E008200123E9
:100B4000224610210090202001F004FA082322A25E
:100B50001021302001F05CFA01F03CFB4FF47A7078
:100B600000F0CAF9601EC4B2002CE7D100F0B4FF57
:100B70004AF2545000F0F4FB322000F0BDF94AF282
:100B8000555000F0EDFB322000F0B6F94AF2525019
:100B900000F0E6FB322000F0AFF9082310A210218C
:100BA000202001F035FA01F015FB4FF4FA7000F047
:100BB000A3F901200249086000F08EFF38BD000053
:100BC00044000020686F6C642063617220332073DE
:100BD00065636F6E640000007365636F6E64000090
:100BE00073756363657373002DE9FC414FF4007006
:100BF00000F044F900287DD04FF4007000F024F993
:100C00007D4801680091406801909DF80000AA2885
:100C100022D19DF8070055281ED19DF802309DF87D
:100C2000014043EA042318B29DF804309DF80340C4
:100C300043EA042319B29DF806309DF8054043EAC3
:100C400004231AB26D4B18606D4B19606D4B1A601E
:100C500000236D4C23600DE06B480068401C6A491E
:100C6000086008460068B0F5FA7F03DD4AF252508A
:100C700000F076FB6548006800287DD0012000F078
:100C80005FF944422046FFF76DFC6149086002208D
:100C900000F056F90446FFF765FC5E490860084617
:100CA00001685B480068FFF74BFA8046FFF7B3FC2A
:100CB00006460022584BFFF774FB0446FFF7EEFC94
:100CC000564908605348016851480068FFF78AFA9E
:100CD000534908604A480068FFF744FC8046FFF724
:100CE0009AFC064600224F4BFFF7CDFB0446FFF768
:100CF000D5FC00E07EE04C49C860484800684B499C
:100D00004862474800684A490865474802F024FCA1
:100D1000054640F6B831454802F0BEFB2C18204687
:100D2000FFF720FC434908604FF4FA61404802F0A5
:100D30003BFA0446FFF716FC3F4908600846016885
:100D40003C480068FFF7FCF90446FFF732FC00B2AC
:100D50003A4908803848016836480068FFF742FA87
:100D60000446FFF726FC00B2354908803348B0F945
:100D7000000041F6583100E02DE0884203DD0846CE
:100D80002E49088009E02D48B0F900002D4988421D
:100D900003DA4EF2A840294908802948B0F900003A
:100DA00041F65831884203DD08462549088009E0AC
:100DB0002348B0F900002349884203DA4EF2A840E4
:100DC0001F4908801E48B0F900101C48B0F9000007
:100DD00000F002FB0DE000200C49086000210846ED
:100DE00000F0FAFA0021084600F0F6FA0F4801F088
:100DF000B1FD00BFBDE8FC811400002024000020EC
:100E00001C000020200000202800002044000020BA
:100E1000480000204C0000200000E03F500000206F
:100E2000540000200000594064000020CC00002045
:100E300034010020580000205C00002060000020E9
:100E400062000020A8E4FFFF00F0805111B10349C7
:100E5000086001E002494860704700000404024055
:100E60000000024021B1026842F00102026004E089
:100E700002684FF6FE731A40026070470146002078
:100E8000002201F0805313B1054B1A6801E0054BB5
:100E90001A6802EA01030BB1012000E0002070474C
:100EA00000040240000002401AB103680B430360D3
:100EB00002E003688B430360704710B500220268AC
:100EC00047F6F0739A430C6A8B6823430C692343FB
:100ED0004C6923438C692343CC6923434C6A2343E5
:100EE0008C6A23431A430260CB6843600B688360BB
:100EF0004B68C36010BD704700B5034603E04FF474
:100F00007A7000F005F8181EA3F10103F7D100BDB7
:100F100000EBC001C9004FF0E02251610021916156
:100F20000521116100BF4FF0E021096901F4803112
:100F30000029F8D004214FF0E02211617047000031
:100F400070B50446012C09D10B4801F098FF05B299
:100F50000021094802F0A8F8284670BD022C09D1EA
:100F6000064801F08CFF05B20021044802F09CF80D
:100F70002846F2E70020F0E70004004000080040A7
:100F800000B587B00121022001F05AFC01210420A4
:100F900001F066FC48208DF81B00C020ADF8180059
:100FA00003208DF81A0006A93F4800F085F80020BC
:100FB000ADF81200ADF80E004FF6FF70ADF810005E
:100FC0000020ADF80C008DF8140003A9374802F09A
:100FD00099F8684601F0ACFF0020ADF800000F2042
:100FE000ADF808006946314801F04CFF0420ADF827
:100FF00000000F20ADF8080069462C4801F042FFC0
:1010000000231A460321294801F018FF012127482F
:1010100001F008FF0121042001F012FC0121082049
:1010200001F01EFC48208DF81B00C020ADF8180010
:1010300003208DF81A0006A91D4800F03DF8002095
:10104000ADF81200ADF80E004FF6FF70ADF81000CD
:101050000020ADF80C008DF8140003A9154802F02B
:1010600051F8684601F064FF0020ADF800000F2041
:10107000ADF8080069460F4801F004FF0420ADF800
:1010800000000F20ADF8080069460A4801F0FAFE9A
:1010900000231A460321074801F0D0FE012105482C
:1010A00001F0C0FE07B000BD000801400004004090
:1010B000000C0140000800402DE9F04102460025E7
:1010C0000026002000230024002791F803C00CF024
:1010D0000F0591F803C00CF0100CBCF1000F03D009
:1010E00091F802C04CEA050591F800C0BCF1000F70
:1010F00031D0146800202BE04FF0010C0CFA00F303
:10110000B1F800C00CEA03069E4220D183004FF0E4
:101110000F0C0CFA03F7BC4305FA03FC4CEA040479
:1011200091F803C0BCF1280F06D14FF0010C0CFA66
:1011300000FCC2F814C00AE091F803C0BCF1480FEB
:1011400005D14FF0010C0CFA00FCC2F810C0401C95
:101150000828D1D31460B1F800C0BCF1FF0F34DD12
:10116000546800202EE000F1080C4FF0010808FA46
:101170000CF3B1F800C00CEA03069E4221D18300B3
:101180004FF00F0C0CFA03F7BC4305FA03FC4CEAD2
:10119000040491F803C0BCF1280F05D100F1080C3C
:1011A00008FA0CF8C2F8148091F803C0BCF1480F9B
:1011B00007D100F1080C4FF0010808FA0CF8C2F84A
:1011C0001080401C0828CED35460BDE8F081024650
:1011D000002093680B400BB1012000E00020704715
:1011E00041617047016170470AB1016100E04161EE
:1011F0007047000010B500224021164802F06FF839
:1012000000211548FFF72EFE4FF4E060FFF71CFEAB
:10121000002003E00021114A1154401C0828F9DB8A
:1012200008200D493039486320210A4802F060F84F
:1012300010B1084802F024F901210748FFF712FE17
:1012400001224021034802F04AF8002004490860C6
:1012500010BD000000480040300002401400002093
:101260002800002000B591B00121082001F0F8FA13
:101270000121880401F0E4FA0121084601F0D0FAC6
:1012800018208DF843004FF48060ADF84000032033
:101290008DF8420010A92E48FFF70EFF04208DF8AC
:1012A00043004002ADF8400010A92948FFF704FFB1
:1012B0004FF4E1300C900020ADF83C000C20ADF86C
:1012C0003A000020ADF83800ADF83600ADF8340033
:1012D0000CA9204802F068F8082004900020039030
:1012E0000B901D480290002008908020069020203E
:1012F00009901848001D01900020079005904FF4B8
:1013000040500A9001A91548FFF7D7FD0121134865
:10131000FFF7A8FD012240210E4801F0E0FF012265
:1013200002210E48FFF7C0FD0D208DF800000120BE
:101330008DF803008DF801008DF80200684600F07A
:1013400089FB0121034801F0BEFF11B000BD000080
:10135000000C014000480040140000203000024012
:1013600070B50446FFF746FFE5B2260A304600F0A6
:1013700007F8284600F004F8FFF73CFF70BD0000B6
:1013800010B504462146054802F07FF800BF8021D1
:10139000024801F0ADFF0028F9D010BD0048004020
:1013A00000BFFEE700BFFEE708B50121082001F0FD
:1013B00057FA10208DF803004FF47040ADF800008C
:1013C00003208DF8020069460248FFF775FE01F020
:1013D000C7F908BD000C014070B504460D46002C4D
:1013E00005DB02F009F9A0B201F008FA05E002F00D
:1013F000F5F8614288B201F001FA002D05DB02F038
:1014000027F9A8B201F002FA05E002F013F96942E7
:1014100088B201F0FBF970BD704710B5002000F0F4
:1014200029F9E22000F0F8F8012000F023F910BDBE
:1014300010B5002000F01EF9E12000F0EDF80120C9
:1014400000F018F910BD000008B50121042001F0DA
:1014500007FA10208DF803004FF47060ADF800001B
:1014600003208DF8020069460E48FFF725FE48204C
:101470008DF803004FF48050ADF8000003208DF884
:10148000020069460748FFF717FE002000F0E6F863
:10149000012000F0EFF8002000F004F9002000F037
:1014A000F5F808BD0008014010B5FFF7CDFF082191
:1014B000002000F003F93F21012000F0FFF8012196
:1014C000022000F0FBF80321084600F0F7F80321A2
:1014D000042000F0F3F80221052000F0EFF80E21BF
:1014E000062000F0EBF80621112000F0E7F80522B5
:1014F00007490A2000F0F3F8FFF79AFFFFF78DFF86
:101500007021072000F0DAF800F070F810BD00003C
:101510003500002010B54FF480510248FFF757FE08
:1015200010BD00000008014070B50446002000F026
:10153000A1F8204600F070F8FF2000F06DF8054695
:10154000012000F097F8284670BD70B505460E469C
:10155000002000F08FF8612000F05EF8002405E024
:10156000FF2000F059F82855601CC4B2B442F7DBE4
:10157000012000F07FF870BD10B5002000F07AF86F
:10158000FF2000F049F80446012000F073F82046DF
:1015900010BD000070B5FFF7EFFF05460020FFF714
:1015A000C3FF064606F0020018B90324FFF77CFFCC
:1015B00018E005F03000302803D10224FFF774FF53
:1015C00010E005F0400040280BD101240621064818
:1015D000FFF7BBFF4021072000F070F8FFF71DFF69
:1015E00000E00024204670BD3A00002010B5002025
:1015F00000F034F80020FFF797FF0446FF2C00D1DD
:1016000010BD44F003042146002000F057F80120EB
:1016100000F024F800BFF3E770B50446002518E099
:1016200004F0800018B1012000F030F802E0002042
:1016300000F02CF86006040E012000F033F8FFF7EC
:1016400069FF08B144F00104002000F02BF8681C89
:10165000C5B2082DE4DB204670BD000010B504467D
:1016600022464FF480710248FFF7BEFD10BD000016
:101670000008014010B5044622464FF400710248AC
:10168000FFF7B2FD10BD00000008014010B5044690
:1016900022464FF400610248FFF7A6FD10BD00008E
:1016A0000008014010B5044622464FF4806102480C
:1016B000FFF79AFD10BD00000008014070B5044618
:1016C0000D460020FFF7D6FF44F02000FFF7A4FFEF
:1016D0002846FFF7A1FF0120FFF7CCFF70BD2DE9E1
:1016E000F04105460E4617460020FFF7C3FF45F0C0
:1016F0002000FFF791FF002404E0305DFFF78CFF2E
:10170000601CC4B2BC42F8DB0120FFF7B3FFBDE8A8
:10171000F081000070B5FFF73DFF2E4908700846C4
:10172000007800B970BD2C48007945B22A4840794C
:1017300044B2291E01DB0A4600E04A42052A0BDCBE
:10174000201E01DB024600E04242052A04DC0020A4
:101750002249886222494865052C0EDD281E01DBDE
:10176000014600E04142192907DA4FF081401B4948
:10177000886200201A4948650FE014F1050F0CDA61
:10178000281E01DB014600E04142052905DA154823
:101790001249886200201249486515F1050F0ADADE
:1017A000201E01DB014600E04142052903DA0E4814
:1017B0000B4948650BE0052D09DD201E01DB0146C4
:1017C00000E04142052902DA08480549486500BFA2
:1017D000A8E700009F0100203A000020CC00002074
:1017E00034010020000080C000007AC400007A4468
:1017F0002DE9F041FFF7CEFE8949087008460078D0
:1018000008B9BDE8F08187484078012804D0022853
:101810003DD003287DD185E043208349087081486D
:101820008078012802D002282ED116E07D48007869
:1018300038B97E4908687E49FEF782FC7B4908601A
:101840000AE078480078012806D178490868784984
:10185000FEF7C8FC7549086017E07248007838B98F
:10186000724948687249FEF76BFC704948600AE0AB
:101870006C480078012806D16C4948686C49FEF72D
:10188000B1FC6A49486000E000BF00BFA2E044200C
:101890006549087063488078012802D002283ED14B
:1018A00016E06048007838B96249C8696049FEF7B7
:1018B00099FC6049C8610AE05A480078012806D1BD
:1018C0005C49C8695A49FEF73BFC5A49C86127E0A0
:1018D0005448007870B95749086AFEF79CFE0646DE
:1018E000554A564BFEF757FD0446FEF7D7FE5149C1
:1018F000086213E04B48007801280FD14D49086A6F
:10190000FEF789FE06464C4A4C4BFEF7A3FC044604
:1019100000E05EE0FEF7C2FE4649086200E000BF5C
:1019200000BF57E04520404908703E4880780128B4
:1019300002D002284AD124E03A48007870B94049E0
:10194000086CFEF768FE06463B4A3E4BFEF782FCFB
:101950000446FEF7A3FE3A49086411E031480078D6
:1019600001280DD13649086CFEF755FE0646324A6D
:10197000344BFEF710FD0446FEF790FE3049086434
:1019800025E02848007870B92D49486CFEF743FEE1
:1019900006462D4A2D4BFEF75DFC0446FEF77EFE03
:1019A0002749486411E01F48007801280DD12449D7
:1019B000486CFEF730FE0646234A244BFEF7EBFC4C
:1019C0000446FEF76BFE1E49486400E000BF00BFFE
:1019D00000E000BF00BF1348C07801281ED10020DE
:1019E0001B49086040F6B830FFF786FA4AF25450B7
:1019F000FFF7B6FC3220FFF77FFA4AF25550FFF7A7
:101A0000AFFC3220FFF778FA4AF25250FFF7A8FCF9
:101A10003220FFF771FA01200D49086000BFF0E69F
:101A20009F0100203A0000209E0100206400002059
:101A300000002041CC0000209A9999999999A93FDA
:101A4000340100209999B93F7B14AE47E17A843F75
:101A50004400002070B5002100230F22C47804B395
:101A6000154C246804F4E064C4F5E064210AC1F173
:101A70000403CA40447804FA03F1847814402143F3
:101A800009010E4C0678A155047804F01F050124C5
:101A9000AC4005786D11AD0005F1E025C5F80041B9
:101AA00009E0047804F01F050124AC40044D0678D9
:101AB000761145F8264070BD0CED00E000E400E032
:101AC00080E100E002490143024A116070470000D2
:101AD0000000FA050CED00E000200CE0002106E01B
:101AE0000022064B03EBC0135A544A1CD1B2802982
:101AF000F6DB421CD0B20828F0DB7047A4010020BE
:101B00002DE9F04304460D4616461F46284638E0A8
:101B1000224631E0002A2DDB7F2A2BDC002829DB3E
:101B20003F2827DC4FEAE07C00EB5C7C4FEAEC0CC2
:101B3000DFF8588008EBCC1C1CF802C003464FEAC3
:101B4000E07800EB58784FEAE808A0EBC8094FF0BE
:101B5000010808FA09F82CEA080C01464FEAE07877
:101B600000EB58784FEAE808DFF8209009EBC81836
:101B700008F802C0511C0AB2A1199142CADC411CEA
:101B800008B2E9198142C3DCBDE8F083A40100205A
:101B900038B5002406E0002500E06D1CB5F57A7F1D
:101BA000FBD3641CB4F57A7FF5D30121082000F043
:101BB00057FE14208DF8030003208DF802004FF427
:101BC0008070ADF8000069460848FFF775FA4FF4D9
:101BD0000070ADF8000069460448FFF76DFA012077
:101BE00000F00CFB012000F015FB38BD000C01409B
:101BF00070B50546002411E080212141294009B13A
:101C0000012100E00021084600F004FB012000F063
:101C1000F5FA002000F0F2FA601CC4B2082CEBDBED
:101C2000012000F0EBFA002000F0E8FA70BD10B5DA
:101C3000012000F0EFFA012000F0E0FA002000F0AF
:101C4000E9FA002000F0DAFA10BD10B5002000F02B
:101C5000E1FA012000F0D2FA012000F0DBFA10BD19
:101C600010B5FFF795FFAE2000F0E0FAD52000F0A8
:101C7000DDFA802000F0DAFAA82000F0D7FA3F2041
:101C800000F0D4FAD32000F0D1FA002000F0CEFA10
:101C9000402000F0CBFAA12000F0C8FAC82000F0E4
:101CA000C5FADA2000F0C2FA122000F0BFFA812053
:101CB00000F0BCFACF2000F0B9FAD92000F0B6FA53
:101CC000F12000F0B3FADB2000F0B0FA302000F091
:101CD000ADFAA42000F0AAFAA62000F0A7FA8D2001
:101CE00000F0A4FA142000F0A1FAAF2000F09EFA50
:101CF000FFF7F2FE00F06EFA10BD10B502460120AB
:101D000000E050430B1EA1F10101FAD110BD70B5E6
:101D100005460C4645F0B00000F088FA102141EA73
:101D2000141000F083FA04F00F0000F07FFA70BD89
:101D3000F8B506460F4614461D46082D0CD1A4F1F1
:101D400020000E4901EB00101023082239460090B4
:101D5000304600F081F80FE0062D0DD1A4F12000EF
:101D600000EB4000064901EB4000082306223946FB
:101D70000090304600F070F8F8BD00000037000811
:101D8000F03C00082DE9FF5F86B0074614461D466B
:101D9000DDF85080169E0022134620462946FEF7A5
:101DA00065FC06D833462B2238460799FFF7C0FF5B
:101DB00007E033462D2238460799FFF7B9FF85F033
:101DC000004520462946FEF70DFC82465046FEF7A8
:101DD000E3FB22462B46CDE90401FEF7DFFA044679
:101DE0000D460A201599FFF788FF81464846FEF701
:101DF000D3FB22462B46CDE90001FEF7D2FACDE90E
:101E0000020101F033FCCDE90401FEF7EBFB834650
:101E1000BBFBF9F08244B91908B24346524600961A
:101E2000079900F097F808F1010101FB067108B26B
:101E300033462E220799FFF77BFF08F1020101FBD1
:101E4000067108B200965A46159B079900F082F871
:101E50000AB0BDE8F09F00002DE9FF4F80460E4616
:101E60009146DDF834B0002500244A46314640460C
:101E7000039BFFF745FE00BF5EE0002558E008EB3E
:101E80000500002852DB08EB05007F284EDC3046B9
:101E9000F11706EB5171C9100FB2F11706EB517132
:101EA000C910A6EBC10A002E05DA781E07B20AF1A6
:101EB00008000FFA80FA3819002817DB38190728AC
:101EC00014DC3819224901EBC01008EB0501405C15
:101ED00004FB09511BF8011001FA0AF108433919F2
:101EE0001B4A02EBC11108EB050288543819401C4B
:101EF00000281BDB3819401C072817DC3819401C48
:101F0000134901EBC01008EB0501405C04FB0951CB
:101F10001BF80110CAF10802114108433919491C84
:101F20000B4A02EBC11108EB05028854681CC5B2CC
:101F30004D45A4DB601CC4B20399481EC11700EBD9
:101F40005171012202EBE101A14296DCBDE8FF8F55
:101F5000A40100202DE9F0470646894617461D4694
:101F6000DDF82080002417E0281B411E0A20FFF71F
:101F7000C4FEB7FBF0F00A21B0FBF1F201FB120046
:101F800000F1300A04FB086108B243465246494654
:101F9000FFF7CEFE601CC4B2AC42E5DBBDE8F087C3
:101FA0002DE9F04F80468A4615461E46DDF82490FE
:101FB000002D07DB4B462B2251464046FFF7B8FE6B
:101FC0002F4606E04B462D2251464046FFF7B0FE15
:101FD0006F42002418E0301B411E0A20FFF78DFEDF
:101FE000B7FBF0F00A21B0FBF1F201FB120000F1A7
:101FF000300B611C01FB098108B24B465A46514621
:10200000FFF796FE601CC4B2B442E4DBBDE8F08F7B
:102010002DE9FE4F07468A46144698460025AB46F2
:102020000026CBE0605D00F0800058B94FF0010B56
:102030002846691C8DB2205C8DF8040000208DF8C4
:1020400005006BE0605D00F0E000C02814D14FF0A7
:10205000020B2846691C8DB2205C8DF80400605D7F
:1020600000B9AFE02846691C8DB2205C8DF80500F0
:1020700000208DF8060051E0605D00F0F000E028DF
:102080001DD14FF0030B2846691C8DB2205C8DF8E2
:102090000400605D00B995E02846691C8DB2205CA3
:1020A0008DF80500605D00B98CE02846691C8DB292
:1020B000205C8DF8060000208DF807002EE0605DA2
:1020C00000F0F800F02826D14FF0040B2846691CD8
:1020D0008DB2205C8DF80400605D00B972E0284686
:1020E000691C8DB2205C8DF80500605D00B969E067
:1020F0002846691C8DB2205C8DF80600605D00B931
:1021000060E02846691C8DB2205C8DF80700002035
:102110008DF8080002E0681C85B24FE0BBF1010FAA
:102120000BD19DF80420B91908B243465146FFF778
:10213000FFFD06EB080086B23FE04FF000090EE01D
:1021400009EB890101EB4911204A881801A9FDF723
:10215000E9FF00B90EE009F101001FFA80F909EB6F
:10216000890101EB4911194A881819A1FDF7DAFF15
:102170000028E5D100BFB8F1080F12D109EB8900A2
:1021800000EB491011490844401DB919009008B2EC
:1021900010231A465146FFF75FFE06F1100086B283
:1021A0000BE0B8F1060F08D1B91908B206233F2297
:1021B0005146FFF7BDFDB01D86B200BF605D00282F
:1021C0007FF430AF00BFBDE8FE8F00002A3F00085B
:1021D0000000000010B500240BE000212046FFF7AE
:1021E00096FD054901EBC410802100F02FF8601C1A
:1021F000C4B2082CF1DB10BDA401002010B50446C8
:1022000022464FF480710248FEF7EEFF10BD000039
:10221000000C014010B5044622464FF400710248FC
:10222000FEF7E2FF10BD0000000C014010B50446AF
:10223000FFF7FDFC7820FFF7DBFC0020FFF7D8FC60
:102240002046FFF7D5FCFFF700FD10BD70B5054631
:102250000E46FFF7ECFC7820FFF7CAFC4020FFF7A2
:10226000C7FC002404E0285DFFF7C2FC601CC4B278
:10227000B442F8DBFFF7E9FC70BD00003EB5FB4857
:10228000007838B3FAA1FB48FDF74CFF10B94120A4
:10229000F9490870F9A1F748FDF744FF10B9422049
:1022A000F5490870F6A1F348FDF73CFF10B943204B
:1022B000F1490870F3A1EF48FDF734FF10B944204D
:1022C000ED490870F0A1EB48FDF72CFF10B945204F
:1022D000E9490870E8480078413805287ED2DFE8EF
:1022E00000F0034594F7F500FFF7F6FB0823E7A29B
:1022F00000210846FFF78CFE0823E8A210210020E9
:10230000FFF786FE0823E7A220210020FFF780FECA
:102310000823E5A230210020FFF77AFEE348006899
:10232000642190FBF1F40820032322461021009041
:102330003020FFF735FEDE480068642190FBF1F4A1
:10234000082003232246202100903020FFF728FE9A
:10235000D8480068642190FBF1F40820032322464A
:10236000302100900846FFF71BFE73E1FFF7B4FB36
:102370000823D1A200210846FFF74AFE0823D2A273
:1023800010210020FFF744FE0823D0A220210020C6
:10239000FFF73EFE0823CEA210214820FFF738FEAB
:1023A0000823CCA220214820FFF732FE0820042376
:1023B0000090C948B0F9002010210846FFF7F0FD51
:1023C000082004230090C548B0F9002020211020E7
:1023D000FFF7E6FD0120FEF7B3FD00E039E14442DE
:1023E000082002232246102100905820FFF7D8FD34
:1023F0000220FEF7A5FD04460820022322462021E4
:1024000000905820FFF7CCFD24E1FFF765FB08237F
:10241000B3A200210846FFF7FBFD0823B4A2102158
:102420000020FFF7F5FD082396A220210020FFF7EA
:10243000EFFD0823AFA210213820FFF7E9FD0823A4
:10244000ADA220213820FFF7E3FDAC490868FEF774
:10245000E2F804460B46082000210322CDE90021C2
:10246000029022461021FFF78DFCA4494868FEF730
:10247000D2F804460B46082000210322CDE90021B2
:10248000029022462021FFF77DFC9C498868FEF7D8
:10249000C2F804460B460820022100912246CDE9ED
:1024A000011010215020FFF76DFC9449C868FEF719
:1024B000B2F804460B460820022100912246CDE9DD
:1024C000011020215020FFF75DFCC3E060E0FFE732
:1024D000FFF702FB08238AA200210846FFF798FDB8
:1024E000082383A210210020FFF792FD082388A271
:1024F00020210020FFF78CFD08237EA21021382028
:10250000FFF786FD08237CA220213820FFF780FDFD
:102510008049C869FEF77FF804460B460820002171
:102520000322CDE90021029022461021FFF72AFC68
:102530007849086AFEF76FF804460B460820012127
:1025400000912246CDE901102021FFF71BFC7149C3
:10255000486AFEF760F804460B4608200221009105
:102560002246CDE9011010215020FFF70BFC6949EC
:10257000886AFEF750F804460B46082002210091B5
:102580002246CDE9011020215020FFF7FBFB61E03E
:10259000FFF7A2FA082360A200210846FFF738FDE2
:1025A000082353A210210020FFF732FD082335A293
:1025B00020210020FFF72CFD08234EA210213820F7
:1025C000FFF726FD08234CA220213820FFF720FD2D
:1025D0005649086CFEF71FF804460B4608200121F7
:1025E00000912246CDE901101021FFF7CBFB4F49A6
:1025F000486CFEF710F804460B46082001210091B4
:102600002246CDE901102021FFF7BCFB4749086DA8
:10261000FEF701F804460B46082000210122CDE90F
:1026200000210290224610215020FFF7ABFB3F49CA
:10263000486DFDF7F0FF04460B46082000210422F8
:10264000CDE900210290224620215020FFF79AFB7D
:1026500000E000BF00BF3648006830B108234E22BA
:1026600030217820FFF764FB6AE063E0A0010020DE
:1026700041000000A40500209E010020420000004F
:102680004300000044000000450000002020416E8F
:10269000676C652020506167652020005069746375
:1026A00068000000526F7700596177001C0000201D
:1026B000200000202400002020204D6F746F722025
:1026C0002050616765202000504C000050520000EF
:1026D000534C0000535200006000002062000020B4
:1026E0002020416E676C65202054657374202000A3
:1026F000500000004D6561005461720064000020CC
:102700002020537065656420205465737420200078
:1027100049000000CC00002020205475726E20205B
:102720002020546573742020000000003401002034
:10273000440000200823462230217820FFF7F8FAD1
:102740003EBD002101614161816181604162C162E0
:10275000016341638163C1630165416581657047C0
:1027600000B589B00121084600F06AF80121042073
:1027700000F076F818208DF823000320ADF8200033
:102780008DF8220008A91C48FEF796FC4FF0804007
:1027900000F0D7FB0020ADF81A00ADF8160041F6A6
:1027A0001F40ADF818000020ADF814008DF81C0093
:1027B00005A94FF0804000F0A5FC01A800F066FCE0
:1027C0006020ADF804000020ADF80C000120ADF849
:1027D00006000020ADF80A0001A94FF0804000F08B
:1027E000B7FB01A94FF0804000F0FEFB01218807F4
:1027F00000F018FB09B000BD0008014010B5044608
:1028000021464FF0804000F04BFC10BD10B504464F
:1028100021464FF0804000F045FC10BD704700009D
:1028200029B1064A52690243044B5A6104E0034A43
:1028300052698243014B5A61704700000010024008
:1028400029B1064AD2690243044BDA6104E0034A23
:10285000D2698243014BDA617047000000100240E8
:1028600029B1064A92690243044B9A6104E0034A83
:1028700092698243014B9A61704700000010024048
:1028800030B500210022002400232D4D6D6805F095
:102890000C0121B1042905D0082923D105E0294DD7
:1028A000056022E0274D05601FE0254D6D6805F4A9
:1028B0007012234D6D6805F48034022505EB9242B9
:1028C0001CB9214D554305600BE01D4D6D6805F4A5
:1028D00000351DB11C4D5543056002E0194D5543AF
:1028E000056002E0174D056000BF00BF144D6D6824
:1028F00005F0F0010909154D6B5C0568DD40456088
:102900000F4D6D6805F4E061090A104D6B5C456878
:10291000DD4085600A4D6D6805F46051C90A0B4DB4
:102920006B5C4568DD40C560054D6D6805F4404150
:10293000890B074D6B5CC568B5FBF3F5056130BDD0
:102940000010024000127A0000093D000000002043
:1029500010000020002141630163816370477047CC
:102960002DE9F0412B480068FDF705FE06460022E0
:10297000294BFDF788FD04460022284BFDF776FE23
:102980000ED324480068FDF7F6FD06460022224BD0
:10299000FDF779FD04460022214BFDF74FFE0DD2D5
:1029A00000202049086000210846FEF715FD00219F
:1029B0000846FEF711FD1C48FFF7CCFF19480068D8
:1029C00030B31A48B0F9000041F6583188420ADBAA
:1029D0001748B0F90000884205DB16480088401C03
:1029E0001449088002E0002012490880114800883C
:1029F0003C280DDB00200B49086000210846FEF74B
:102A0000EBFC00210846FEF7E7FC0748FFF7A2FFB2
:102A1000BDE8F0811C000020000059400000494042
:102A2000000049C044000020CC00002060000020CD
:102A3000620000209C01002010B500F001F810BDDC
:102A40000CB50020019000903348006840F48030BD
:102A50003149086000BF3048006800F40030009041
:102A60000198401C0190009818B90198B0F5A06F2A
:102A7000F1D12948006800F4003010B10120009025
:102A800001E0002000900098012843D1234800680D
:102A900040F01000214908600846006820F003005B
:102AA00008600846006840F0020008601A48406864
:102AB000194948600846406848600846406840F444
:102AC000806048600846406820F47C1048600846F2
:102AD000406840F4E81048600846006840F08070A4
:102AE000086000BF0C48006800F000700028F9D0B2
:102AF0000948406820F003000749486008464068DC
:102B000040F00200486000BF0348406800F00C003D
:102B10000828F9D10CBD000000100240002002403E
:102B20007047000010B5FFF79BF8FEF73DFCFEF77D
:102B300027FAFDF79DFFFEF7B7FC3220FEF7DCF920
:102B4000FEF790FB4AF25250FEF70AFC3220FEF7E5
:102B5000D3F94FF4A060FEF7B5FF0748FFF7F1FD8A
:102B60000648FFF7EEFD0648FFF7EBFD012414B120
:102B7000FDF7D8FF002410BD64000020CC00002029
:102B80003401002010B51348006840F001001149DD
:102B9000086008464068104908400E4948600846E9
:102BA00000680E4908400B4908600846006820F498
:102BB000802008600846406820F4FE0048604FF41A
:102BC0001F008860FFF738FF4FF00060044908607D
:102BD00010BD0000001002400000FFF8FFFFF6FEED
:102BE00008ED00E0F0B50C46154600220021068CE9
:102BF0004FF6FE773E400684028B018C4FF60C7632
:102C000032407E1C06EA03162E433243104EB04279
:102C10000ED0104EB0420BD0B0F1804F08D00E4E07
:102C2000B04205D00D4EB04202D00D4EB04206D19A
:102C30004FF6FD76314044F00106314305E04FF692
:102C4000F576314044F00106314302830184F0BD42
:102C5000002C014000340140000400400008004006
:102C6000000C0040F0B50C4615460022002100265D
:102C7000078C4FF6EF7C07EA0C070784028B018C68
:102C80004FF6FF7707EA041640F6FF473A404FF643
:102C9000FF7707EA03373A434FF6FF7707EA05273E
:102CA0003A43114FB8420ED0104FB8420BD0B0F19A
:102CB000804F08D00E4FB84205D00E4FB84202D018
:102CC0000D4FB84206D14FF6DF77394046F0100776
:102CD000394305E04FF65F77394044F01007394338
:102CE00002830184F0BD0000002C0140003401404B
:102CF0000004004000080040000C0040F0B50C4605
:102D00001546002200210026078C4FF6FF6C07EACB
:102D10000C070784828B018C4FF6FF7707EA0426A5
:102D20004FF60C773A404FF6FF7707EA03172F4329
:102D30003A43114FB8420ED0104FB8420BD0B0F109
:102D4000804F08D00E4FB84205D00E4FB84202D087
:102D50000D4FB84206D14FF6FF57394046F4807701
:102D6000394305E04FF2FF57394044F48077394347
:102D700082830184F0BD0000002C0140003401403A
:102D80000004004000080040000C0040F0B50C4674
:102D90001546002200210026078C4EF6FF7C07EA2C
:102DA0000C070784828B018C4FF6FF7707EA043605
:102DB00040F6FF473A404FF6FF7707EA05273A43C8
:102DC0004FF6FF7707EA03373A43114FB8420ED068
:102DD000104FB8420BD0B0F1804F08D00E4FB84220
:102DE00005D00E4FB84202D00D4FB84206D14DF675
:102DF000FF77394046F48057394305E047F6FF57DF
:102E0000394044F48057394382830184F0BD000087
:102E1000002C014000340140000400400008004044
:102E2000000C004021B1028842F00102028004E05F
:102E300002884FF6FE731A4002807047F0B50C46C8
:102E400015461E460021002200230189028B038CB7
:102E50004FF6F877394021434FF6FC473A4040F2AD
:102E600001173A434FF6DD773B404FF6FF7707EA0D
:102E700006172F433B43018102830384F0BD0146C3
:102E8000888C704770B505460C46244885420ED0A4
:102E9000234885420BD0B5F1804F08D021488542A8
:102EA00005D02148854202D02048854200D100E06B
:102EB00000BF208850B92389A28861882846FFF77F
:102EC00091FEE188284600F0F1F825E020880428EA
:102ED0000AD12389A28861882846FFF7C3FEE188CA
:102EE000284600F0ECF817E0208808280AD123894A
:102EF000A28861882846FFF701FFE188284600F094
:102F0000EBF809E02389A28861882846FFF73EFF95
:102F1000E188284600F0E9F870BD0000002C01406F
:102F2000003401400004004000080040000C004054
:102F3000002101804180012181800021C180018127
:102F4000704701894FF6F872114001817047000007
:102F500070B5002400220023058C4FF6FE76354024
:102F60000584028C8388048B4FF68F752C40B51E28
:102F70002C400D882C43751E2A400D892A434D880C
:102F80002A43144DA8420BD0134DA84208D0134D2C
:102F9000A84205D0124DA84202D0124DA84213D12A
:102FA0004FF6F7752A404D892A434FF6FB752A40A4
:102FB0008D882A434FF6FF652B404FF6FF552B4077
:102FC0008D892B43CD892B4383800483CD888586CF
:102FD000028470BD002C01400034014000400140DB
:102FE000004401400048014070B500240022002345
:102FF000058C4FF6EF7635400584028C8388048B70
:1030000048F6FF752C404FF6FF452C400D884FF6D3
:10301000FF7606EA05252C434FF6DF752A400D8919
:1030200006EA05152A434D8806EA05152A43154D7B
:10303000A84202D0144DA8421DD14FF67F752A40F8
:103040004D894FF6FF7606EA05152A434FF6BF7500
:103050002A408D8806EA05152A434FF6FF352B4096
:103060004FF2FF752B408D8906EA85052B43CD89EC
:1030700006EA85052B4383800483CD880587028477
:1030800070BD0000002C014000340140002101808F
:1030900041808180C180018141818181C1817047EE
:1030A000818670470187704781847047028B4FF695
:1030B000F3731A400283028B0A4302837047028B28
:1030C0004FF2FF331A400283028B4FF6FF7303EA7D
:1030D00001231A4302837047828B4FF6F3731A4021
:1030E0008283828B0A4382837047828B4FF2FF3345
:1030F0001A408283828B4FF6FF7303EA01231A433F
:1031000082837047002202881D4B98420ED01D4BCF
:1031100098420BD0B0F1804F08D01B4B984205D09D
:103120001A4B984202D01A4B984204D14FF68F7333
:103130001A404B881A43174B984207D0164B9842B7
:1031400004D04FF6FF431A40CB881A4302808B8885
:1031500083850B8803850A4B98420BD0094B984214
:1031600008D00E4B984205D00D4B984202D00D4B23
:10317000984201D10B7A03860123838270470000B5
:10318000002C0140003401400004004000080040D1
:10319000000C0040001000400014004000400140BE
:1031A000004401400048014070B504460D46D4E992
:1031B0001401FDF717F8A065D4E91601FDF712F820
:1031C0002066A16D206CFDF713F8A064216E606C81
:1031D000FDF70EF8E064D4E91201FCF7B1FF606678
:1031E0002846FDF7BFF90646616EFDF773FA03D274
:1031F0002846FDF7B7F960666842FDF7B3F9064661
:10320000616EFDF771FA03D26842FDF7ABF96066B3
:10321000A06DE065606EFDF7CCF970BD10B540F2B1
:1032200025511C4800F071F8012832D1194800F0EE
:1032300027F9C4B21848007858B9402C23D1174850
:10324000007800BB01201449087000201449087060
:1032500019E011480078012815D1232C0AD100204B
:103260000D4908700F490E4A1278885401200B4905
:10327000087008E00B480A49097844540848007867
:10328000401C0749087040F22551024800F00CF834
:1032900000BF10BD0044004041000020400000205D
:1032A00042000020A405002010B50022002340F6B3
:1032B0006A14A14200D100BF0A1201249440A3B2B3
:1032C000DC43048010BD21B1828942F40052828126
:1032D00004E082894DF6FF731A40828170471AB16B
:1032E000838A0B43838202E0838A8B438382704705
:1032F00002460020B1F5007F00D100BF13880B40CB
:103300000BB1012000E00020704770B50246002498
:1033100000230025002040F66A16B14200D100BF0C
:10332000C1F3421501F01F03012606FA03F3012D34
:1033300002D19689334006E0022D02D1168A33402D
:1033400001E0968A33400C12012606FA04F416882E
:10335000344013B10CB1012000E0002070BDF0B585
:103360000346002400260025002040F66A17B942D3
:1033700000D100BF1846C1F3421401F01F06012717
:1033800007FA06F5012C01D10C3004E0022C01D122
:10339000103000E014301AB107682F43076002E0D4
:1033A0000768AF430760F0BD2DE9F04786B00546DA
:1033B0000E460024A24600BFA1460027B08900B1F6
:1033C00000BF2F462C8A4CF6FF700440F08804435F
:1033D0002C82AC894EF6F3100440B0883189084342
:1033E000718908430443AC81AC8A4FF6FF40044026
:1033F000B0890443AC8201A8FFF742FA1F48874214
:1034000002D1DDF810A001E0DDF80CA0A88900F4DD
:10341000004040B10AEBCA0000EB0A1031684900D5
:10342000B0FBF1F807E00AEBCA0000EB0A103168C4
:103430008900B0FBF1F86420B8FBF0F0040120092A
:10344000642101FB1089A88900F4004040B13220BA
:1034500000EBC900B0FBF1F000F00700044308E006
:10346000322000EB09106421B0FBF1F000F00F00F6
:1034700004432C8106B0BDE8F0870000003801400D
:1034800001468888C0F308007047C1F308028280B3
:10349000704700BFFEE700002DE9F04104460D46ED
:1034A0002C48E063D4E90901FCF79CFEE0624FF090
:1034B0007C51E06AFDF70EF907D24FF03F41E06A18
:1034C000FDF712F901D20020E0624FF07E50E16B6F
:1034D000FCF788FE8046616BFCF78AFE0646E16ACF
:1034E000E06BFCF785FE07463146FCF729FE2063BA
:1034F000216BA06BFCF724FEA0632846FDF732F891
:103500000646A16BFDF7E6F803D22846FDF72AF838
:10351000A0636842FDF726F80646A16BFDF7E4F8C4
:1035200003D26842FDF71EF8A063206B6063A16BB5
:10353000206AFCF75DFE0746216BE069FCF758FE48
:1035400080463946FCF7FCFD0646FDF732F8BDE83B
:10355000F08100009A99993E2DE9F0410446D4E9A2
:103560000201FCF73FFE206112492069FDF7B2F825
:1035700006D211492069FDF7B7F801D20020206179
:10358000D4E90401FCF72EFEA06120696061A16905
:103590006068FCF72DFE064621692068FCF728FECE
:1035A00007463146FCF7CCFD0546FDF702F8BDE8BD
:1035B000F08100009A99993E9A9999BE02E008C854
:1035C000121F08C1002AFAD170477047002001E09D
:1035D00001C1121F002AFBD17047000010B54FF443
:1035E00000510448FDF7FEFD4FF480510148FDF7FE
:1035F000F7FD10BD000C014010B54FF48051044898
:10360000FDF7F0FD4FF400510148FDF7E9FD10BD55
:10361000000C0140FFF786FA0BE0FFF7A1F9FEF777
:1036200079F8FEF7E5F8FDF7B1F9FEF727FEFEF7AA
:10363000D1FDF2E710B54FF480410448FDF7D2FD0B
:103640004FF400410148FDF7CBFD10BD000C0140D7
:1036500010B54FF400410448FDF7C4FD4FF480411C
:103660000148FDF7BDFD10BD000C01402DE9F04DF6
:1036700007460E46FDF708F904460D463A4633461E
:10368000FCF78CFEDFF86CA0DFF86CB01B4B074634
:10369000884616F0004F4FF000020AD0FCF7CEFF2C
:1036A0000AD900225B4638464146FCF7DFFF1BD2B1
:1036B00012E0FCF7C3FF08D20022534620462946F9
:1036C000FCF769FE04460D460EE000225B463846D4
:1036D0004146FCF7CBFF07D8002253462046294637
:1036E000FCF7B8FD04460D463146204665F31E0141
:1036F000BDE8F08D0000F03F0000E03F0000E0BFBB
:1037000000000000000000000000000000000000B9
:10371000000000F80000000000000033300000004E
:1037200000160E00160E0000000000000000000051
:1037300040C07840C0784000043F04043F040400C7
:10374000007088FC08300000001820FF211E0000D7
:10375000F008F000E018000000211C031E211E00EC
:1037600000F00888700000001E2123241927211072
:10377000000000160E000000000000000000000025
:10378000000000E0180402000000000718204000BC
:1037900000020418E00000000040201807000000AC
:1037A000404080F0804040000202010F0102020010
:1037B000000000F0000000000101011F01010100F4
:1037C000000000000000000000B0700000000000D9
:1037D00000000000000000000001010101010101E2
:1037E0000000000000000000003030000000000079
:1037F000000000008060180400601806010000004E
:1038000000E010080810E000000F102020100F004A
:10381000001010F8000000000020203F20200000D1
:103820000070080808887000003028242221300029
:1038300000300888884830000018202020110E0031
:103840000000C02010F8000000070424243F2400DA
:1038500000F80888880808000019212020110E00AF
:1038600000E0108888180000000F112020110E00C1
:1038700000380808C83808000000003F00000000B9
:103880000070880808887000001C222121221C007A
:1038900000E010080810E0000000312222110F00A3
:1038A000000000C0C0000000000000303000000038
:1038B000000000C0C0000000000080B070000000E8
:1038C00000008040201008000001020408102000C1
:1038D000404040404040400004040404040404000C
:1038E00000081020408000000020100804020100A1
:1038F000007048080808F0000000003036010000A1
:10390000C030C828E810E0000718272423140B0053
:103910000000C038E0000000203C230202273820CD
:1039200008F8888888700000203F202020110E00B1
:10393000C0300808080838000718202020100800A8
:1039400008F808080810E000203F202020100F0091
:1039500008F88888E8081000203F2020232018005D
:1039600008F88888E8081000203F200003000000C5
:10397000C03008080838000007182020221E020066
:1039800008F808000008F808203F210101213F2025
:10399000000808F8080800000020203F2020000050
:1039A00000000808F8080800C08080807F00000040
:1039B00008F888C028180800203F20012638200079
:1039C00008F8080000000000203F202020203000E0
:1039D00008F8F800F8F80800203F003F003F2000FA
:1039E00008F830C00008F808203F200007183F0002
:1039F000E01008080810E0000F10202020100F0031
:103A000008F808080808F000203F21010101000023
:103A1000E01008080810E0000F18242438504F0068
:103A200008F8888888887000203F2000030C302028
:103A300000708808080838000038202121221C0066
:103A4000180808F8080818000000203F20000000AF
:103A500008F808000008F808001F202020201F0098
:103A60000878880000C83808000007380E010000F8
:103A7000F80800F80008F800033C0700073C0300C2
:103A8000081868808068180820302C03032C302028
:103A90000838C800C83808000000203F2000000097
:103AA00010080808C83808002038262120201800EF
:103AB000000000FE020202000000007F40404000C3
:103AC000000C30C000000000000000010638C000FB
:103AD00000020202FE000000004040407F000000A3
:103AE0000020100804081020000000000000000062
:103AF00000000000000000008080808080808080C6
:103B000000020408000000000000000000000000A7
:103B100000008080808000000019242222223F20A3
:103B200008F8008080000000003F112020110E00E6
:103B30000000008080800000000E11202020110075
:103B4000000000808088F800000E112020103F2027
:103B50000000808080800000001F222222221300AB
:103B6000008080F0888888180020203F20200000F6
:103B70000000808080808000006B949494936000AB
:103B800008F8008080800000203F210000203F20B6
:103B900000809898000000000020203F20200000B6
:103BA000000000809898000000C08080807F0000A6
:103BB00008F8000080808000203F24022D30200083
:103BC000000808F8000000000020203F202000002E
:103BD0008080808080808000203F20003F20003F48
:103BE000008080008080000000203F2100203F20D6
:103BF0000000808080800000001F202020201F0007
:103C0000808000808000000080FFA12020110E0035
:103C10000000008080808000000E112020A0FF8026
:103C2000808080008080800020203F2120000100D3
:103C30000000808080808000003324242424190028
:103C4000008080E0808000000000001F2020000035
:103C50008080000000808000001F202020103F2076
:103C6000808080000080808000010E300806010006
:103C700080800080008080800F300C030C300F00AB
:103C800000808000808080000020312E0E312000D6
:103C9000808080000080808080818E701806010006
:103CA00000808080808080000021302C2221300024
:103CB00000000000807C020200000000003F404045
:103CC00000000000FF00000000000000FF000000F6
:103CD0000002027C800000000040403F0000000025
:103CE00000804040800000800000000000010100D2
:103CF0000000000000000000002F0000000007008E
:103D0000070000147F147F1400242A7F2A12002346
:103D10001308646200364955225000000007000075
:103D200000001C224100000041221C000014083E3B
:103D300008140008083E0808000000A06000000801
:103D40000808080800006060000000201008040255
:103D5000003E5149453E0000427F40000042615113
:103D60004946002141454B31001814127F100027AD
:103D700045454539003C4A49493000017109050370
:103D800000364949493600064949291E00003636A1
:103D90000000000056360000000814224100001404
:103DA00014141414000041221408000201510906E1
:103DB000003E4955592E007C1211127C007F494962
:103DC0004936003E41414122007F4141221C007F93
:103DD00049494941007F09090901003E4149497AA1
:103DE000007F0808087F0000417F4100002040411B
:103DF0003F01007F08142241007F40404040007F87
:103E0000020C027F007F0408107F003E4141413ECA
:103E1000007F09090906003E4151215E007F091912
:103E200029460046494949310001017F0101003F0F
:103E30004040403F001F2040201F003F4038403F8F
:103E400000631408146300070870080700615149F3
:103E5000454300007F41410000020408102000009B
:103E600041417F0000040201020400404040404004
:103E7000000001020400002054545478007F48449C
:103E8000443800384444442000384444487F0038D3
:103E90005454541800087E0901020018A4A4A47CFC
:103EA000007F080404780000447D400000408084C6
:103EB0007D00007F102844000000417F4000007C0E
:103EC00004180478007C080404780038444444381A
:103ED00000FC242424180018242418FC007C080466
:103EE000040800485454542000043F444020003C3F
:103EF0004040207C001C2040201C003C4030403CC6
:103F0000004428102844001CA0A0A07C0044645455
:103F10004C440000087F41000000007F00000000CA
:103F2000417F0800000804081008E6B19F00001057
:103F300060020CC004040404FC0404040400000433
:103F4000047C0320202020203F202020202000E58A
:103F50008D8F00001010FF1010009010FF1010F057
:103F6000800000000000FF00048241300F40807F8D
:103F700000010600E7A79100002424A4FEA322006C
:103F800022CC0000FF00000000080601FF00010431
:103F900004040404FF02020200E68A8000001010FC
:103FA00010FF109008888888FF88888808000444DB
:103FB000827F01808040432C102846818000E5B933
:103FC000B3000000020212620202FE02024232024A
:103FD00002000001010101010101FF0101010101D4
:103FE000010100E8A1A100001088C42308F493F2A5
:103FF0009AF6004044C444000100FF001097543F6B
:1040000054971040807F0000E8BDA600000008889B
:104010004828180FE80808080808080000080809D8
:1040200009090909FF0909090909080800E6B58B0A
:1040300000001060028C00FE02F202FE00F800FF99
:10404000000004047E018047300F10270047807F66
:104050000000E8AF950000404042CC009090909066
:1040600090FF10111610000000003F1028603F1054
:1040700010010E3040F000E7A88B00002424A4FEBD
:104080002322003E22222222223E0000080601FFB7
:104090000106404949497F4949494100E5BA8F0035
:1040A000000000FC04040414155694543414040451
:1040B0000040300F0001010141817F010101050332
:1040C00000E68F900000101010FF109000FE9292FA
:1040D000929292FE00000444827F0180423A428222
:1040E000FE9292928200E7A4BA000040404242420F
:1040F0004242C24242424242404000201008060072
:1041000040807F0000000204083000E5B7B20000E4
:104110000000E28282828282828282FE00000000AF
:1041200000003F4040404040404040404078000058
:10413000E9878D0000101014D4545454FC5252528C
:10414000D312101000404050575555557F555555C6
:104150005750404000E7BDAE0000001715D5555739
:10416000557D555755D5151700004040407F555592
:1041700055555555557F40404000E58F8200000061
:104180002020A86C2A3928A82A6CA8202000000228
:10419000828190924A49452422100801020200E6D9
:1041A00095B0000090523410FF10345280708F0888
:1041B00008F80800829A566322528E008040330C21
:1041C00033408000E8AFB700004042CC00004454C8
:1041D00054547F54545444400000007F201000FF8A
:1041E00015151555957F000000E6B3A80000106076
:1041F000028C0008080809FA0808080800000404EE
:104200007E0140404141417F414141414000E684BF
:104210008F0000101012D2565A5253525A56D212D0
:104220001010004030007785858DB5858585E700C5
:10423000106000E689A70000101010FF1090001019
:1042400010FF1010F00000000444827F0180402124
:104250001A0718003F40F000E8A18C000000108809
:10426000C4330040424242C2424242400002010086
:10427000FF0000000040807F0000000000E6A0A1D9
:1042800000001010D0FF9010804828090E08284820
:104290008800040300FF00018080432C102C438021
:1042A0008000E58786000000020CE04020F84F48BF
:1042B00049FE484848080004047F000000FF22220D
:1042C000223F2222222000EFBC9A000000000000C2
:1042D0000000000000000000000000000000363672
:1042E000000000000000000000000000E8B08300B3
:1042F000004042CC0000FE829292FE929282FE002A
:104300000000003F10887F001E1212125E807F00A6
:1043100000E8AF950000404042CC00909090909013
:10432000FF10111610000000003F1028603F101011
:10433000010E3040F000E6A8A100001010D0FF9060
:1043400014E4AFA4A4A4AFE4040000040300FF003D
:10435000894B2A1A0E1A2A4B888000E5BC8F000070
:10436000101090909090901010FF101011161000E7
:10437000002060203F10101000030C102040F800B7
:10438000E7A1AC00000484E45C44C400F29292FE15
:104390009292F2020002017F10103F808F54245F3E
:1043A0004484878000E4BBB60000008060F807808A
:1043B000601C1010FF1010100000010000FF000230
:1043C00002020202FF0202020200E4BCA00000009E
:1043D0008060F807404848E85F484848404000018E
:1043E0000000FF0000020B1222D20A06000000E6C5
:1043F000849F00000000FC04D4545454D4047F84EF
:10440000C53604008866010063828292AB8482C153
:104410000224CF00E599A8000080809E9292929E8F
:10442000E0809EB2D2929E80000808F4949292F1AD
:104430000001F2929494F80800E4BF9D000000800F
:1044400060F807003E2222E222223E000000010026
:1044500000FF2011090503FF030509112000E68C68
:10446000810000101010FF1010404848487F48C8D5
:104470004840000444827F010002020A1242827F07
:10448000020200E7AB96000000FE0000FF00868AF3
:104490005222524A868000004040444455644546BA
:1044A0004464544444404000E79BB40000000404CA
:1044B000F49494949F949494F40404000040404035
:1044C0007F4A4A4A4A4A4A4A7F40404000E4B894F8
:1044D0000000000000FE22222222222222FE0000F2
:1044E00000004040407F424242424242427F4040C0
:1044F0004000E99D9900004454547F5454442028BE
:1045000027E4342CE0000000FF1555957F00094991
:10451000897F09091F0100E6ADA20000000000F03C
:10452000000000FF40404040400000004040407F0D
:104530004040407F4040404040404000E58D950075
:10454000000000F8494A4C48F8484C4A49F8000035
:104550000010101312121212FF1212121213101066
:1045600000E587BB000080808888888888FF88886D
:1045700088888880800000007C404040407F404028
:104580004040FC000000E994AE00004030EF2424DD
:1045900080E49C105454FF547C100001017F215191
:1045A0002618274445455F45454400E7A1AE000075
:1045B0000484E45C44C42010E82724E4342CE000A4
:1045C00002017F10103F80601F09093F49897F0069
:1045D000E8AEA40000404042CC0000000000FF0014
:1045E00000000000000000003F904820180700076E
:1045F0001820408000E5AE8C0000100C0424242418
:1046000025262424242404140C0000818141310F28
:104610000101017F818181F10000E68890000000A6
:1046200000F8888888880808FF08090AC8080080F8
:10463000601F0010201F80402116182641F800E757
:10464000BC9600002030AC633000FC2425262424D6
:10465000243C000022672212523807FF097F093FDD
:1046600089FF0000E7A08100000484E45C44C400EA
:1046700002F2828282FE80800002017F10103F00E1
:10468000080808084888403F00E794B5000000008B
:10469000F888888888FF88888888F80000000000EB
:1046A0001F080808087F888888889F80F000E69C9B
:1046B000BA00001010D0FF901000FE020202FE00AF
:1046C000000000040300FF0083601F0000003F4063
:1046D000407800E4B8B2000000003C24242424FF09
:1046E000242424243C000000001F0909090909FFB3
:1046F00009090909091F0000E58FA300000000FC5B
:10470000040404040404040404FC00000000007F0A
:104710002020202020202020207F000000E995BFBD
:10472000000080808080FF8080A0908884828080CC
:10473000800000000000FF402112040810202040EB
:104740004000E68C890000101010FF9020988888A7
:10475000E98E8888A898000242817F000080844BFF
:1047600028102847800000E8BF940000404042CC59
:104770000000FC24A4242222A36200000040201F89
:10478000205847504845424548504000E59B9E0010
:10479000000000FE0202F2121212F20202FE0000FB
:1047A0000000007F2020272424242720207F0000D1
:1047B000000000000000FF01010131090909098919
:1047C0007101010101FFFF808080808080968180DF
:1047D0008080808080FFFF01818181FD8991A1C15E
:1047E000FD81818101FFFF808080809F888482819C
:1047F0009F80808080FF0000184800080000002093
:10480000A40100003409000850480008A401002059
:1048100064080000CC350008412D010203040400A7
:1048200009180607080902040608BE112233445578
:1048300009610221012316C3037E48C41ABE840302
:104840008680BF072280BFCDCCCCBD524100000086
:04000005080000ED02
:00000001FF
